S00F000070726F696563742E737265631F
S11300000C9434000C9446000C9446000C94460066
S11300100C9446000C9446000C9446000C94460044
S11300200C9446000C9446000C943C010C9446003D
S11300300C9446000C9446000C9446000C94460024
S11300400C94C0000C9446000C9446000C9446009A
S11300500C94460057005B005F00630067006B0070
S11300606F00730077007B0011241FBECFE5D8E03A
S1130070DEBFCDBF20E0A0E6B0E001C01D92A138F4
S1130080B207E1F70E94B1020C9428050C94000019
S11300909BB3907F9BBB95B315BA462F50E04A3073
S11300A0510560F5FA01E65DFF4F0C940E0595B31A
S11300B09F6395BB23C095B3966095BB1FC095B352
S11300C09B6595BB1BC095B39F6495BB17C095B347
S11300D0966695BB13C095B39D6695BB0FC095B34B
S11300E09D6795BB0BC095B3976095BB07C095B34F
S11300F09F6795BB03C095B39F6695BB823069F03B
S113010018F4813031F00895833059F0843069F067
S113011008958BB381608BBB08958BB382608BBBD6
S113012008958BB384608BBB08958BB388608BBBBD
S1130130089580E487B987E886B986B1886086B96E
S11301408FB780688FBF089597B1907E97B997B1A4
S1130150892B87B986B1806486B93699FECF84B17C
S113016090E090937B0080937A0025B130E0309347
S1130170790020937800322F2227822B932B089525
S11301801F920F920FB60F9211242F933F934F9308
S11301905F936F937F938F939F93AF93BF93EF93EB
S11301A0FF9364B170E070937B0060937A0085B133
S11301B090E09093790080937800982F8827682B9B
S11301C0792B7093770060937600072E000C880BD0
S11301D0990B0E94D80320E030E040EA50E40E94EA
S11301E08D0420E030E040E85AE30E948D046093DF
S11301F06E0070936F00809370009093710020E004
S113020030E04AE754E40E948D0420E030E040E20C
S113021051E40E942E0360936A0070936B008093F4
S11302206C0090936D000E94A0037093750060931E
S11302307400FF91EF91BF91AF919F918F917F9146
S11302406F915F914F913F912F910F900FBE0F903F
S11302501F90189580E88FBF8BE083BF12BE8DE797
S11302608CBF89B7826089BF089581B3806881BBE0
S11302708CE685BD13BC08951F920F920FB60F92A2
S113028011248F929F92AF92BF92CF92DF92EF92FE
S1130290FF922F933F934F935F936F937F938F932B
S11302A09F93AF93BF93EF93FF9380917F009091BF
S11302B080008336910509F0A7C086E00E94A4005F
S11302C0BC01990F880B990B0E94D80360936200BC
S11302D070936300809364009093650020E030E0A5
S11302E040EA51E40E948D0420E030E040E85AE303
S11302F00E948D0420E030E040EA51E40E94BD02F7
S11303000E94A003072E000C880B990B0E94D803AF
S1130310609366007093670080936800909369000F
S113032087E00E94A4009093770080937600BC013C
S1130330990F880B990B0E94D80320E030E040EA23
S113034050E40E948D0420E030E040E85AE30E942B
S11303508D0460936E0070936F008093700090938F
S1130360710020E030E04AE754E40E948D0420E06C
S113037030E040E251E40E942E0360936A007093DF
S11303806B0080936C0090936D000E94A0037093A7
S1130390750060937400072E000C880B990B0E9463
S11303A0D8036B017C018090660090906700A09058
S11303B06800B090690020E030E040E050E4C501FE
S11303C0B4010E94BD029B01AC01C701B6010E94A9
S11303D0880488231CF08FEF83BD11C020E030E037
S11303E040E050E4C501B4010E94BC029B01AC0191
S11303F0C701B6010E94290318160CF013BC109211
S1130400800010927F0005C0019690938000809335
S11304107F00B19B16C08091600090916100892B90
S1130420A1F481E090E0909361008093600080915A
S11304307200909173000196909373008093720000
S113044004C010926100109260008091720090913B
S1130450730081709078992324F401978E6F9F6FB5
S11304600196019779F4609166007091670080911C
S11304706800909169000E94A00370937D006093CE
S11304807C0008C0809174009091750090937D0069
S113049080937C0080917E008F5F80937E00823009
S11304A0A9F018F4813031F043C0833009F184306D
S11304B089F13EC080917C0090917D0068EE73E0EC
S11304C00E94FA0481E00E94480032C080917C00BE
S11304D090917D0064E670E00E94FA04CB016AE02A
S11304E070E00E94FA04682F82E00E94480020C055
S11304F080917C0090917D002AE030E0B9010E9457
S1130500FA04CB01B9010E94FA04682F83E00E9427
S113051048000EC080917C0090917D006AE070E0FC
S11305200E94FA04682F84E00E94480010927E0022
S1130530FF91EF91BF91AF919F918F917F916F91B7
S11305405F914F913F912F91FF90EF90DF90CF906B
S1130550BF90AF909F908F900F900FBE0F901F9001
S113056018958FE08ABB8FEF84BB0E9499000E948C
S11305702A010E943501FFCF5058BB27AA270E94A9
S1130580D4020C944E040E94400438F00E944704A4
S113059020F039F49F3F19F426F40C943D040EF432
S11305A0E095E7FB0C943704E92F0E945F0458F3AD
S11305B0BA17620773078407950720F079F4A6F544
S11305C00C9481040EF4E0950B2EBA2FA02D0B0190
S11305D0B90190010C01CA01A0011124FF27591B84
S11305E099F0593F50F4503E68F11A16F040A22F8A
S11305F0232F342F4427585FF3CF469537952795FB
S1130600A795F0405395C9F77EF41F16BA0B620BF9
S1130610730B840BBAF09150A1F0FF0FBB1F661F40
S1130620771F881FC2F70EC0BA0F621F731F841F83
S113063048F4879577956795B795F7959E3F08F0A9
S1130640B0CF9395880F08F09927EE0F979587956B
S113065008950E94130408F481E008950E9442035F
S11306600C944E040E94470458F00E94400440F049
S113067029F45F3F29F00C94370451110C9482043F
S11306800C943D040E945F0468F39923B1F355234D
S113069091F3951B550BBB27AA2762177307840791
S11306A038F09F5F5F4F220F331F441FAA1FA9F327
S11306B035D00E2E3AF0E0E832D091505040E69515
S11306C0001CCAF72BD0FE2F29D0660F771F881F76
S11306D0BB1F261737074807AB07B0E809F0BB0B69
S11306E0802DBF01FF2793585F4F3AF09E3F51057D
S11306F078F00C9437040C9482045F3FE4F3983E42
S1130700D4F3869577956795B795F7959F5FC9F765
S1130710880F911D9695879597F90895E1E0660FE6
S1130720771F881FBB1F621773078407BA0720F05F
S1130730621B730B840BBA0BEE1F88F7E0950895C8
S11307400E94A7036894B1110C94820408950E9436
S1130750670488F09F5798F0B92F9927B751B0F0E4
S1130760E1F0660F771F881F991F1AF0BA95C9F731
S113077014C0B13091F00E948104B1E008950C944A
S11307808104672F782F8827B85F39F0B93FCCF3FD
S1130790869577956795B395D9F73EF490958095AE
S11307A0709561957F4F8F4F9F4F0895E89409C0CE
S11307B097FB3EF490958095709561957F4F8F4F90
S11307C09F4F9923A9F0F92F96E9BB279395F695A6
S11307D0879577956795B795F111F8CFFAF4BB0F24
S11307E011F460FF1BC06F5F7F4F8F4F9F4F16C088
S11307F0882311F096E911C0772321F09EE8872F12
S1130800762F05C0662371F096E8862F70E060E0CD
S11308102AF09A95660F771F881FDAF7880F969546
S1130820879597F90895990F0008550FAA0BE0E8EA
S1130830FEEF16161706E807F907C0F0121613069E
S1130840E407F50798F0621B730B840B950B39F4DE
S11308500A2661F0232B242B252B21F408950A2644
S113086009F4A140A6958FEF811D811D089597F984
S11308709F6780E870E060E008959FEF80EC089542
S113088000240A941616170618060906089500246B
S11308900A9412161306140605060895092E0394E5
S11308A0000C11F4882352F0BB0F40F4BF2B11F459
S11308B060FF04C06F5F7F4F8F4F9F4F089557FDB8
S11308C09058440F551F59F05F3F71F04795880FBA
S11308D097FB991F61F09F3F79F087950895121651
S11308E013061406551FF2CF4695F1DF08C01616FD
S11308F017061806991FF1CF8695710561050894AE
S11309000895E894BB2766277727CB0197F90895C4
S11309100E94130408F48FEF08950E94A0040C941D
S11309204E040E94400438F00E94470420F09523AE
S113093011F00C9437040C943D0411240C9482049B
S11309400E945F0470F3959FC1F3950F50E0551F0B
S1130950629FF001729FBB27F00DB11D639FAA2710
S1130960F00DB11DAA1F649F6627B00DA11D661F5F
S1130970829F2227B00DA11D621F739FB00DA11D80
S1130980621F839FA00D611D221F749F3327A00D3A
S1130990611D231F849F600D211D822F762F6A2FD6
S11309A011249F5750409AF0F1F088234AF0EE0F3B
S11309B0FF1FBB1F661F771F881F91505040A9F768
S11309C09E3F510580F00C9437040C9482045F3FE1
S11309D0E4F3983ED4F3869577956795B795F795A4
S11309E0E7959F5FC1F7FE2B880F911D969587951C
S11309F097F9089597FB072E16F4009407D077FD16
S1130A0009D00E94140507FC05D03EF49095819509
S1130A109F4F0895709561957F4F0895EE0FFF1FC6
S1130A200590F491E02D0994AA1BBB1B51E107C06A
S1130A30AA1FBB1FA617B70710F0A61BB70B881F6A
S1130A40991F5A95A9F780959095BC01CD010895F9
S1070A50F894FFCF44
S9030000FC
